{
  "_format": "hh-sol-artifact-1",
  "contractName": "TokenVesting",
  "sourceName": "contracts/TokenVesting.sol",
  "abi": [
    {
      "inputs": [
        {
          "internalType": "address",
          "name": "_tokenAddress",
          "type": "address"
        }
      ],
      "stateMutability": "nonpayable",
      "type": "constructor"
    },
    {
      "inputs": [
        {
          "internalType": "address",
          "name": "owner",
          "type": "address"
        }
      ],
      "name": "OwnableInvalidOwner",
      "type": "error"
    },
    {
      "inputs": [
        {
          "internalType": "address",
          "name": "account",
          "type": "address"
        }
      ],
      "name": "OwnableUnauthorizedAccount",
      "type": "error"
    },
    {
      "inputs": [],
      "name": "ReentrancyGuardReentrantCall",
      "type": "error"
    },
    {
      "inputs": [
        {
          "internalType": "address",
          "name": "token",
          "type": "address"
        }
      ],
      "name": "SafeERC20FailedOperation",
      "type": "error"
    },
    {
      "anonymous": false,
      "inputs": [
        {
          "indexed": true,
          "internalType": "address",
          "name": "previousOwner",
          "type": "address"
        },
        {
          "indexed": true,
          "internalType": "address",
          "name": "newOwner",
          "type": "address"
        }
      ],
      "name": "OwnershipTransferred",
      "type": "event"
    },
    {
      "anonymous": false,
      "inputs": [
        {
          "indexed": true,
          "internalType": "address",
          "name": "beneficiary",
          "type": "address"
        },
        {
          "indexed": false,
          "internalType": "uint256",
          "name": "amount",
          "type": "uint256"
        }
      ],
      "name": "TokensClaimed",
      "type": "event"
    },
    {
      "anonymous": false,
      "inputs": [
        {
          "indexed": true,
          "internalType": "address",
          "name": "beneficiary",
          "type": "address"
        },
        {
          "indexed": false,
          "internalType": "uint256",
          "name": "amount",
          "type": "uint256"
        },
        {
          "indexed": false,
          "internalType": "uint256",
          "name": "startTime",
          "type": "uint256"
        },
        {
          "indexed": false,
          "internalType": "uint256",
          "name": "cliffDuration",
          "type": "uint256"
        },
        {
          "indexed": false,
          "internalType": "uint256",
          "name": "vestingDuration",
          "type": "uint256"
        }
      ],
      "name": "VestingCreated",
      "type": "event"
    },
    {
      "anonymous": false,
      "inputs": [
        {
          "indexed": true,
          "internalType": "address",
          "name": "beneficiary",
          "type": "address"
        },
        {
          "indexed": false,
          "internalType": "uint256",
          "name": "remainingAmount",
          "type": "uint256"
        }
      ],
      "name": "VestingRevoked",
      "type": "event"
    },
    {
      "inputs": [
        {
          "internalType": "uint256",
          "name": "",
          "type": "uint256"
        }
      ],
      "name": "beneficiaries",
      "outputs": [
        {
          "internalType": "address",
          "name": "",
          "type": "address"
        }
      ],
      "stateMutability": "view",
      "type": "function"
    },
    {
      "inputs": [],
      "name": "claim",
      "outputs": [],
      "stateMutability": "nonpayable",
      "type": "function"
    },
    {
      "inputs": [
        {
          "internalType": "address",
          "name": "_beneficiary",
          "type": "address"
        },
        {
          "internalType": "uint256",
          "name": "_totalAmount",
          "type": "uint256"
        },
        {
          "internalType": "uint256",
          "name": "_startTime",
          "type": "uint256"
        },
        {
          "internalType": "uint256",
          "name": "_cliffDuration",
          "type": "uint256"
        },
        {
          "internalType": "uint256",
          "name": "_vestingDuration",
          "type": "uint256"
        }
      ],
      "name": "createVesting",
      "outputs": [],
      "stateMutability": "nonpayable",
      "type": "function"
    },
    {
      "inputs": [],
      "name": "getAllBeneficiaries",
      "outputs": [
        {
          "internalType": "address[]",
          "name": "",
          "type": "address[]"
        }
      ],
      "stateMutability": "view",
      "type": "function"
    },
    {
      "inputs": [
        {
          "internalType": "address",
          "name": "_beneficiary",
          "type": "address"
        }
      ],
      "name": "getClaimableAmount",
      "outputs": [
        {
          "internalType": "uint256",
          "name": "",
          "type": "uint256"
        }
      ],
      "stateMutability": "view",
      "type": "function"
    },
    {
      "inputs": [
        {
          "internalType": "address",
          "name": "_beneficiary",
          "type": "address"
        }
      ],
      "name": "getSchedule",
      "outputs": [
        {
          "internalType": "uint256",
          "name": "totalAmount",
          "type": "uint256"
        },
        {
          "internalType": "uint256",
          "name": "releasedAmount",
          "type": "uint256"
        },
        {
          "internalType": "uint256",
          "name": "claimableAmount",
          "type": "uint256"
        },
        {
          "internalType": "uint256",
          "name": "startTime",
          "type": "uint256"
        },
        {
          "internalType": "uint256",
          "name": "cliffEndTime",
          "type": "uint256"
        },
        {
          "internalType": "uint256",
          "name": "vestingEndTime",
          "type": "uint256"
        },
        {
          "internalType": "bool",
          "name": "revoked",
          "type": "bool"
        }
      ],
      "stateMutability": "view",
      "type": "function"
    },
    {
      "inputs": [
        {
          "internalType": "address",
          "name": "_beneficiary",
          "type": "address"
        }
      ],
      "name": "getVestingProgress",
      "outputs": [
        {
          "internalType": "uint256",
          "name": "",
          "type": "uint256"
        }
      ],
      "stateMutability": "view",
      "type": "function"
    },
    {
      "inputs": [],
      "name": "owner",
      "outputs": [
        {
          "internalType": "address",
          "name": "",
          "type": "address"
        }
      ],
      "stateMutability": "view",
      "type": "function"
    },
    {
      "inputs": [],
      "name": "renounceOwnership",
      "outputs": [],
      "stateMutability": "nonpayable",
      "type": "function"
    },
    {
      "inputs": [
        {
          "internalType": "address",
          "name": "_beneficiary",
          "type": "address"
        }
      ],
      "name": "revokeVesting",
      "outputs": [],
      "stateMutability": "nonpayable",
      "type": "function"
    },
    {
      "inputs": [
        {
          "internalType": "address",
          "name": "newOwner",
          "type": "address"
        }
      ],
      "name": "transferOwnership",
      "outputs": [],
      "stateMutability": "nonpayable",
      "type": "function"
    },
    {
      "inputs": [
        {
          "internalType": "address",
          "name": "",
          "type": "address"
        }
      ],
      "name": "vestingSchedules",
      "outputs": [
        {
          "internalType": "uint256",
          "name": "totalAmount",
          "type": "uint256"
        },
        {
          "internalType": "uint256",
          "name": "releasedAmount",
          "type": "uint256"
        },
        {
          "internalType": "uint256",
          "name": "startTime",
          "type": "uint256"
        },
        {
          "internalType": "uint256",
          "name": "cliffDuration",
          "type": "uint256"
        },
        {
          "internalType": "uint256",
          "name": "vestingDuration",
          "type": "uint256"
        },
        {
          "internalType": "bool",
          "name": "revoked",
          "type": "bool"
        }
      ],
      "stateMutability": "view",
      "type": "function"
    },
    {
      "inputs": [],
      "name": "vestingToken",
      "outputs": [
        {
          "internalType": "contract IERC20",
          "name": "",
          "type": "address"
        }
      ],
      "stateMutability": "view",
      "type": "function"
    }
  ],
  "bytecode": "0x608060405234801561001057600080fd5b506040516110d03803806110d083398101604081905261002f9161014f565b338061005657604051631e4fbdf760e01b8152600060048201526024015b60405180910390fd5b61005f816100ff565b5060017f9b779b17422d0df92223018b32b4d1fa46e071723d6817e2486d003becc55f00556001600160a01b0381166100da5760405162461bcd60e51b815260206004820152601560248201527f496e76616c696420746f6b656e20616464726573730000000000000000000000604482015260640161004d565b600180546001600160a01b0319166001600160a01b039290921691909117905561017f565b600080546001600160a01b038381166001600160a01b0319831681178455604051919092169283917f8be0079c531659141344cd1fd0a4f28419497f9722a3daafe3b4186f6b6457e09190a35050565b60006020828403121561016157600080fd5b81516001600160a01b038116811461017857600080fd5b9392505050565b610f428061018e6000396000f3fe608060405234801561001057600080fd5b50600436106100cf5760003560e01c8063cf75cff31161008c578063eab23abe11610066578063eab23abe146101cd578063efeb5e58146101e0578063f2fde38b146101f3578063fdb20ccb1461020657600080fd5b8063cf75cff31461014f578063d39fee3414610170578063e12f3a61146101ba57600080fd5b806319d152fa146100d45780632f14bae8146101045780633b0da260146101195780634e71d92d1461012e578063715018a6146101365780638da5cb5b1461013e575b600080fd5b6001546100e7906001600160a01b031681565b6040516001600160a01b0390911681526020015b60405180910390f35b61010c61027d565b6040516100fb9190610dab565b61012c610127366004610e14565b6102df565b005b61012c61043d565b61012c6105c1565b6000546001600160a01b03166100e7565b61016261015d366004610e14565b6105d3565b6040519081526020016100fb565b61018361017e366004610e14565b6106e0565b604080519788526020880196909652948601939093526060850191909152608084015260a0830152151560c082015260e0016100fb565b6101626101c8366004610e14565b61079b565b61012c6101db366004610e36565b6108ba565b6100e76101ee366004610e78565b610bb6565b61012c610201366004610e14565b610be0565b61024e610214366004610e14565b6002602081905260009182526040909120805460018201549282015460038301546004840154600590940154929493919290919060ff1686565b6040805196875260208701959095529385019290925260608401526080830152151560a082015260c0016100fb565b606060038054806020026020016040519081016040528092919081815260200182805480156102d557602002820191906000526020600020905b81546001600160a01b031681526001909101906020018083116102b7575b5050505050905090565b6102e7610c1e565b6001600160a01b038116600090815260026020526040902080546103405760405162461bcd60e51b815260206004820152600b60248201526a4e6f207363686564756c6560a81b60448201526064015b60405180910390fd5b600581015460ff16156103875760405162461bcd60e51b815260206004820152600f60248201526e105b1c9958591e481c995d9bdad959608a1b6044820152606401610337565b60006103928361079b565b82600101546103a19190610ea7565b905060008183600001546103b59190610ec0565b60058401805460ff19166001179055905080156103f4576103f46103e16000546001600160a01b031690565b6001546001600160a01b03169083610c4b565b836001600160a01b03167f57c76f5e278bfbd4eeb5207d287aa5a1a9e1113c65f7eefa540e379a2774d13b8260405161042f91815260200190565b60405180910390a250505050565b610445610c85565b33600090815260026020526040902080546104985760405162461bcd60e51b81526020600482015260136024820152724e6f2076657374696e67207363686564756c6560681b6044820152606401610337565b600581015460ff16156104df5760405162461bcd60e51b815260206004820152600f60248201526e15995cdd1a5b99c81c995d9bdad959608a1b6044820152606401610337565b60006104ea3361079b565b90506000811161052f5760405162461bcd60e51b815260206004820152601060248201526f4e6f7468696e6720746f20636c61696d60801b6044820152606401610337565b808260010160008282546105439190610ea7565b909155505060015461055f906001600160a01b03163383610c4b565b60405181815233907f896e034966eaaf1adc54acc0f257056febbd300c9e47182cf761982cf1f5e4309060200160405180910390a250506105bf60017f9b779b17422d0df92223018b32b4d1fa46e071723d6817e2486d003becc55f0055565b565b6105c9610c1e565b6105bf6000610cb3565b6001600160a01b0381166000908152600260208181526040808420815160c0810183528154808252600183015494820194909452938101549184019190915260038101546060840152600481015460808401526005015460ff16151560a083015282036106435750600092915050565b6000816080015182604001516106599190610ea7565b4210610667575080516106c1565b8160600151826040015161067b9190610ea7565b42101561068a575060006106c1565b600082604001514261069c9190610ec0565b905082608001518184600001516106b39190610ed3565b6106bd9190610eea565b9150505b81516106ce826064610ed3565b6106d89190610eea565b949350505050565b6001600160a01b0381166000908152600260208181526040808420815160c08101835281548082526001830154948201859052948201549281019290925260038101546060830152600481015460808301526005015460ff16151560a082015283928392839283928392839291906107578b61079b565b6040840151606085015161076b9082610ea7565b8560800151866040015161077f9190610ea7565b60a090960151949e939d50919b50995097509195509350915050565b6001600160a01b0381166000908152600260208181526040808420815160c0810183528154808252600183015494820194909452938101549184019190915260038101546060840152600481015460808401526005015460ff16151560a0830152158061080957508060a001515b156108175750600092915050565b8060600151816040015161082b9190610ea7565b42101561083b5750600092915050565b6000816080015182604001516108519190610ea7565b421061085f57508051610896565b60008260400151426108719190610ec0565b905082608001518184600001516108889190610ed3565b6108929190610eea565b9150505b816020015181116108ab575060009392505050565b60208201516106d89082610ec0565b6108c2610c1e565b6001600160a01b03851661090e5760405162461bcd60e51b8152602060048201526013602482015272496e76616c69642062656e656669636961727960681b6044820152606401610337565b600084116109535760405162461bcd60e51b81526020600482015260126024820152710416d6f756e74206d757374206265203e20360741b6044820152606401610337565b600081116109a35760405162461bcd60e51b815260206004820152601c60248201527f56657374696e67206475726174696f6e206d757374206265203e2030000000006044820152606401610337565b808211156109f35760405162461bcd60e51b815260206004820152601860248201527f436c696666203e2076657374696e67206475726174696f6e00000000000000006044820152606401610337565b6001600160a01b03851660009081526002602052604090205415610a4b5760405162461bcd60e51b815260206004820152600f60248201526e5363686564756c652065786973747360881b6044820152606401610337565b60008315610a595783610a5b565b425b90506040518060c00160405280868152602001600081526020018281526020018481526020018381526020016000151581525060026000886001600160a01b03166001600160a01b03168152602001908152602001600020600082015181600001556020820151816001015560408201518160020155606082015181600301556080820151816004015560a08201518160050160006101000a81548160ff0219169083151502179055509050506003869080600181540180825580915050600190039060005260206000200160009091909190916101000a8154816001600160a01b0302191690836001600160a01b03160217905550856001600160a01b03167f0ef11fd80fff9cb633beabeab03e30cd8c01b8f7f20493f9644fc85b9cd5bc7886838686604051610ba6949392919093845260208401929092526040830152606082015260800190565b60405180910390a2505050505050565b60038181548110610bc657600080fd5b6000918252602090912001546001600160a01b0316905081565b610be8610c1e565b6001600160a01b038116610c1257604051631e4fbdf760e01b815260006004820152602401610337565b610c1b81610cb3565b50565b6000546001600160a01b031633146105bf5760405163118cdaa760e01b8152336004820152602401610337565b610c588383836001610d03565b610c8057604051635274afe760e01b81526001600160a01b0384166004820152602401610337565b505050565b610c8d610d69565b60027f9b779b17422d0df92223018b32b4d1fa46e071723d6817e2486d003becc55f0055565b600080546001600160a01b038381166001600160a01b0319831681178455604051919092169283917f8be0079c531659141344cd1fd0a4f28419497f9722a3daafe3b4186f6b6457e09190a35050565b60405163a9059cbb60e01b60008181526001600160a01b038616600452602485905291602083604481808b5af192506001600051148316610d5d578383151615610d50573d6000823e3d81fd5b6000873b113d1516831692505b60405250949350505050565b7f9b779b17422d0df92223018b32b4d1fa46e071723d6817e2486d003becc55f00546002036105bf57604051633ee5aeb560e01b815260040160405180910390fd5b6020808252825182820181905260009190848201906040850190845b81811015610dec5783516001600160a01b031683529284019291840191600101610dc7565b50909695505050505050565b80356001600160a01b0381168114610e0f57600080fd5b919050565b600060208284031215610e2657600080fd5b610e2f82610df8565b9392505050565b600080600080600060a08688031215610e4e57600080fd5b610e5786610df8565b97602087013597506040870135966060810135965060800135945092505050565b600060208284031215610e8a57600080fd5b5035919050565b634e487b7160e01b600052601160045260246000fd5b80820180821115610eba57610eba610e91565b92915050565b81810381811115610eba57610eba610e91565b8082028115828204841417610eba57610eba610e91565b600082610f0757634e487b7160e01b600052601260045260246000fd5b50049056fea26469706673582212201eeeb5d96b9a26e92ed1ce730e7606437d36abf1ff2dcaa23f8011f0d3688ae664736f6c63430008140033",
  "linkReferences": {},
  "deployedLinkReferences": {}
}